S01F0000437573746F6D5F50726F6A6563745F4353535F313232412E73726563D7
S113000069C0000084C0000082C0000080C00000FD
S11300107EC000007CC000007AC0000078C00000F0
S113002076C0000074C0000072C0000070C0000000
S11300306EC00000F9C000006AC0000068C0000083
S113004066C0000064C0000062C0000060C0000020
S11300505EC000005CC000005AC0000058C0000030
S113006056C0000054C0000052C0000050C0000040
S11300704EC000004CC000004AC0000048C0000050
S113008046C0000044C0000042C0000085018F014A
S11300909901A301AD01B701C101CB01D50115023D
S11300A0F301F701FB01FF01030207020B020F0238
S11300B0250275026B02610257024D0243023902A6
S11300C02F02B502930297029B029F02A302A7028A
S11300D0AB02AF0211241FBECFEFD0E4DEBFCDBF11
S11300E011E0A0E0B1E0E6E8FCE000E00BBF02C0F4
S11300F007900D92A432B107D9F721E0A4E2B1E050
S113010001C01D92AA33B207E1F786D2BAC578CFEF
S1130110813081F0E1ECF0E0808188618083E2EC61
S1130120F0E080818660808383E38093C400109232
S1130130C5000895E9ECF0E0808188618083EAECF1
S1130140F0E080818660808383E38093CC0010920A
S1130150CD000895813041F0E0ECF0E08081882307
S1130160ECF78091C6000895E8ECF0E080818823E4
S1130170ECF78091CE000895181619065CF00895E6
S1130180000021503109E1F74F5F5F4F8417950755
S113019019F4089540E050E027E033E0F1CF5E9891
S11301A088B95F9A00005F9882E090E0E5CF0895F7
S11301B081E0F5CF089584E690E0DEDF88E3EFDFA9
S11301C086E0EDDF8FE0EBDF81E0E9DF8AE090E0BD
S11301D0D3CF08955E9A88B95F9A00005F9881E052
S11301E090E0CACF0895813118F48158D8CF08958A
S11301F08155D5CF08950F931F93CF93DF93182F75
S1130200EB01D6DF8881882351F001E0010F812FB3
S1130210EADF8991DFDF102F88818111F6CFDF912A
S1130220CF911F910F9108951F920F920FB60F92C5
S113023011248F939F93AF93BF9380912701909143
S11302402801A0912901B0912A010197A109B109BE
S11302508093270190932801A0932901B0932A0148
S1130260892B8A2B8B2B99F481E080932B0180912D
S1130270010190910201A0910301B09104018093C6
S1130280270190932801A0932901B0932A01BF91DB
S1130290AF919F918F910F900FBE0F901F90189563
S11302A080912F01882319F0813029F007C081E063
S11302B080932F0105C010922F0108958130C1F45D
S11302C08091C8008823A4F481E044DF8093250151
S11302D0813371F481E085B980910001811104C0FA
S11302E081E0809300010895813011F4109200019F
S11302F00895E09132018E2F90E08930910508F045
S11303005EC0FC01EA5BFF4FD8C181E080933201FB
S11303108FE697E10197F1F700C0000059C082E031
S1130320809332018FE697E10197F1F700C0000056
S11303304FC083E0809332018FE697E10197F1F794
S113034000C0000045C084E0809332018FE697E14D
S11303500197F1F700C000003BC085E080933201B3
S11303608FE697E10197F1F700C0000031C086E005
S1130370809332018FE697E10197F1F700C0000006
S113038027C087E0809332018FE697E10197F1F768
S113039000C000001DC088E0809332018FE697E121
S11303A00197F1F700C0000013C081E0809332018F
S11303B08FE697E10197F1F700C0000009C081E0E2
S11303C0809332018FE697E10197F1F700C00000B6
S11303D0E09132018E2F90E08930910520F5FC01E7
S11303E0E15BFF4F6AC180E1809324011EC080E37A
S11303F0809324011AC080E28093240116C080E611
S11304008093240112C080E4809324010EC080EC08
S1130410809324010AC080E88093240106C080E907
S11304208093240102C0109224018091240185B993
S11304300895E0912D018E2F90E08930910508F008
S11304405EC0FC01E85AFF4F38C188E080932D015B
S11304508FE697E10197F1F700C0000059C087E0EB
S113046080932D018FE697E10197F1F700C000001A
S11304704FC086E080932D018FE697E10197F1F755
S113048000C0000045C085E080932D018FE697E110
S11304900197F1F700C000003BC084E080932D0178
S11304A08FE697E10197F1F700C0000031C083E0C7
S11304B080932D018FE697E10197F1F700C00000CA
S11304C027C082E080932D018FE697E10197F1F731
S11304D000C000001DC081E080932D018FE697E1EC
S11304E00197F1F700C0000013C088E080932D014C
S11304F08FE697E10197F1F700C0000009C088E09A
S113050080932D018FE697E10197F1F700C0000079
S1130510E0912D018E2F90E08930910520F5FC01AA
S1130520EF59FF4FCAC080E1809324011EC080E3CD
S1130530809324011AC080E28093240116C080E6CF
S11305408093240112C080E4809324010EC080ECC7
S1130550809324010AC080E88093240106C080E9C6
S11305608093240102C0109224018091240185B952
S1130570089580B1809580718093260190912C011B
S1130580913051F028F0923069F0933079F014C032
S113059081E080932C010895803121F582E08093DD
S11305A02C010CC083E080932C0108958031D1F09C
S11305B081E080932C0108959230A1F48091000190
S11305C0813039F41092000187E10DDE80E302CE20
S11305D00895811107C081E08093000187E103DE63
S11305E081E3F8CD089584E0FEDD81E3F3DD89E065
S11305F0FADD81E3EFDD8FE0F6DD81E3EBDD83E11E
S1130600F2DD81E3E7DD87E1EEDD80E3E3DD8BE12D
S1130610EADD80E3DFCD0895CF93DF93CDB7DEB776
S11306202A970FB6F894DEBF0FBECDBF11B88FEF77
S113063082B984B915B887B918B88AB91BB880E0EB
S113064067DD81E065DDB7DD1F9281E08F9385E092
S113065091E09F938F93CE0101969F938F9336D011
S113066068E071E081E0C7DDBEDF10922C011092DA
S1130670320110922D0110922F010F900F900F90C4
S11306800F900F900F9008EC10E0809100018130E2
S113069011F42FDE03C0811101C0CBDE01DE69DF5E
S11306A0F801808188238CF781E054DD8093250153
S11306B0813359F781E085B9E8CFEE0FFF1F00249D
S11306C0001C0BBE0790F691E02D09940F931F9325
S11306D0CF93DF93CDB7DEB72E970FB6F894DEBF76
S11306E00FBECDBF0D891E8986E08C831A830983D2
S11306F08FEF9FE79E838D83AE01475E5F4F6F89C7
S1130700788DCE01019610D0EF81F885E00FF11FAE
S113071010822E960FB6F894DEBF0FBECDBFDF91C8
S1130720CF911F910F9108952F923F924F925F9214
S11307306F927F928F929F92AF92BF92CF92DF92ED
S1130740EF92FF920F931F93CF93DF93CDB7DEB752
S11307502B970FB6F894DEBF0FBECDBF6C017B01A3
S11307608A01FC0117821682838181FFBFC1CE01F9
S113077001963C01F6019381F70193FD859193FF66
S113078081917F01882309F4ADC1853239F493FD49
S1130790859193FF81917F01853221F4B60190E028
S11307A0D6D1E8CF912C212C312CFFE1F315D8F0D0
S11307B08B3279F038F4803279F08332A1F4232D2E
S11307C020611DC08D3261F0803369F4232D2160D6
S11307D016C0832D8260382EE32DE4603E2E2AC09D
S11307E0F32DF8601DC037FC2DC020ED280F2A30F2
S11307F040F08E32B9F436FC75C1232D2064322EBC
S113080019C036FE06C08AE0989E200D1124922E4F
S113081011C0EAE02E9E200D1124222EF32DF06249
S11308203F2E08C08C3621F4832D8068382E02C0F8
S1130830883641F4F70193FD859193FF81917F01FF
S11308408111B3CF982F9F7D9554933028F40C5F7A
S11308501F4F9FE399830DC0833631F0833771F0C6
S1130860833509F055C020C0F801808189830E5F6B
S11308701F4F88248394912C530112C02801F2E065
S11308804F0E511CF801A080B18036FE03C0692DC3
S113089070E002C06FEF7FEFC5014ED14C018201C1
S11308A0F32DFF773F2E15C0280122E0420E511C84
S11308B0F801A080B18036FE03C0692D70E002C04B
S11308C06FEF7FEFC5012DD14C01F32DF0683F2E62
S11308D0820133FC19C0822D90E088169906A0F499
S11308E0B60180E290E033D12A94F5CFF50137FCCC
S11308F0859137FE81915F01B60190E028D12110E6
S11309002A9421E0821A91088114910479F7E1C0B4
S1130910843611F0893639F5F80137FE07C0608155
S11309207181828193810C5F1F4F08C06081718146
S1130930072E000C880B990B0E5F1F4FF32DFF76CB
S11309403F2E97FF09C090958095709561957F4FD4
S11309508F4F9F4FF0683F2E2AE030E0A30133D140
S1130960882E861844C0853731F4232D2F7EB22E6D
S11309702AE030E025C0932D997FB92E8F36C1F03F
S113098018F4883579F0AEC0803719F0883721F033
S1130990A9C0E92FE061BE2EB4FE0DC0FB2DF460AA
S11309A0BF2E09C034FE0AC0292F2660B22E06C00D
S11309B028E030E005C020E130E002C020E132E070
S11309C0F801B7FE07C060817181828193810C5F59
S11309D01F4F06C06081718180E090E00E5F1F4F61
S11309E0A301F1D0882E8618FB2DFF773F2E36FE0B
S11309F00DC0232D2E7FA22E891458F434FE0BC073
S1130A0032FC09C0832D8E7EA82E05C0B82CA32CE1
S1130A1003C0B82C01C0B92CA4FE0FC0FE01E80D20
S1130A20F11D8081803321F49A2D997EA92E09C06D
S1130A30A2FE06C0B394B39404C08A2D867809F04C
S1130A40B394A3FC10C0A0FE06C0B21480F4280C1A
S1130A50922C9B180DC0B21458F4B60180E290E0B9
S1130A6076D0B394F8CFB21418F42B1802C0982C93
S1130A70212CA4FE0FC0B60180E390E068D0A2FE52
S1130A8016C0A1FC03C088E790E002C088E590E0AE
S1130A90B6010CC08A2D867851F0A1FE02C08BE20B
S1130AA001C080E2A7FC8DE2B60190E050D0891429
S1130AB030F4B60180E390E04AD09A94F8CF8A9457
S1130AC0F301E80DF11D8081B60190E040D0811062
S1130AD0F6CF222009F44ECEB60180E290E037D062
S1130AE02A94F7CFF6018681978102C08FEF9FEF9A
S1130AF02B960FB6F894DEBF0FBECDBFDF91CF911A
S1130B001F910F91FF90EF90DF90CF90BF90AF9027
S1130B109F908F907F906F905F904F903F902F9019
S1130B200895FC010590615070400110D8F780953C
S1130B3090958E0F9F1F0895FC01615070400190A5
S1130B400110D8F7809590958E0F9F1F08950F93ED
S1130B501F93CF93DF93FB01238121FD03C08FEF0C
S1130B609FEF2CC022FF16C0468157812481358116
S1130B704217530744F4A081B1819D012F5F3F4F79
S1130B80318320838C93268137812F5F3F4F3783B6
S1130B90268314C08B01EC01FB010084F185E02D58
S1130BA00995892BE1F6D80116968D919C9117979A
S1130BB0019617969C938E931697CE01DF91CF9151
S1130BC01F910F910895FA01AA27283051F120317D
S1130BD081F1E8946F936E7F6E5F7F4F8F4F9F4FCD
S1130BE0AF4FB1E03ED0B4E03CD0670F781F891F0F
S1130BF09A1FA11D680F791F8A1F911DA11D6A0FDD
S1130C00711D811D911DA11D20D009F468943F918F
S1130C102AE0269F11243019305D3193DEF6CF018E
S1130C200895462F4770405D4193B3E00FD0C9F754
S1130C30F6CF462F4F70405D4A3318F0495D31FDC1
S1130C404052419302D0A9F7EACFB4E0A695979514
S1130C50879577956795BA95C9F7009761057105EA
S1130C6008959B01AC010A2E069457954795379534
S1130C702795BA95C9F7620F731F841F951FA01D8E
S1090C800895F894FFCF73
S1130C8601010000002564004C523A202042523AE9
S1130C9620204254523A20204B3A2020473A202022
S1070CA6443A0000C8
S9030000FC
