:1000000045C0000060C000005EC000005CC0000091
:100010005AC0000058C0000056C0000054C0000084
:1000200052C0000050C000004EC000004CC0000094
:100030004AC0000074C0000046C0000044C0000078
:1000400042C0000040C000003EC000003CC00000B4
:100050003AC0000038C0000036C0000034C00000C4
:1000600032C0000030C000002EC000002CC00000D4
:100070002AC0000028C0000026C0000024C00000E4
:1000800022C0000020C000001EC0000011241FBEBE
:10009000CFEFD0E4DEBFCDBF11E0A0E0B1E0E2E6FB
:1000A000F3E000E00BBF02C007900D92A830B1074B
:1000B000D9F721E0A8E0B1E001C01D92A931B20753
:1000C000E1F73AD14CC19CCF181619065CF008959F
:1000D000000021503109E1F74F5F5F4F841795070A
:1000E00019F4089540E050E027E033E0F1CF5E9846
:1000F00088B95F9A00005F9882E090E0E5CF0895AC
:1001000084E690E0E1DF88E3F2DF86E0F0DF8FE075
:10011000EEDF81E0ECDF8AE090E0D6CF08951F9219
:100120000F920FB60F9211248F939F93AF93BF93AB
:1001300080910C0190910D01A0910E01B0910F01E1
:100140000197A109B10980930C0190930D01A0932F
:100150000E01B0930F01892B8A2B8B2B99F481E030
:10016000809310018091040190910501A0910601F6
:10017000B091070180930C0190930D01A0930E01A3
:10018000B0930F01BF91AF919F918F910F900FBED0
:100190000F901F90189580B191E0282F217080FD5D
:1001A00090E090930B0180911401813051F028F080
:1001B000823069F0833079F014C081E080931401BB
:1001C00019C0211117C082E0809314010CC083E094
:1001D000809314010FC0222369F081E08093140101
:1001E00009C0823039F481E090910301911180E0DF
:1001F000809303018091030185B9089580B18095B2
:10020000827080930A0190911101913051F028F091
:10021000923061F0933071F013C081E0809311014E
:100220001DC08230D9F4809311010CC083E080930B
:10023000110114C0823091F081E0809311010EC051
:10024000923061F480910201823019F4109202011F
:1002500005C0811103C082E08093020180910201F8
:1002600085B9089580B1809584708093090190913B
:100270001801913051F028F0923069F0933079F004
:1002800014C081E0809318011EC08430E1F482E044
:10029000809318010CC083E08093180114C084304F
:1002A00091F081E0809318010EC0923061F480914A
:1002B0000101843019F41092010105C0811103C0BD
:1002C00084E0809301018091010185B9089580B196
:1002D000809588708093080190911301913051F0BE
:1002E00028F0923069F0933079F014C081E0809367
:1002F00013011EC08830E1F482E0809313010CC02A
:1003000083E08093130114C0883091F081E08093E2
:1003100013010EC0923061F480910001883019F40D
:100320001092000105C0811103C088E08093000194
:100330008091000185B9089511B88FEF82B984B911
:1003400015B8DEDE109214011092110110921801FE
:100350001092130120DF52DF85DFB9DFFBCFF89465
:02036000FFCFCD
:08036200080402010100000083
:00000001FF
