:1000000045C0000060C000005EC000005CC0000091
:100010005AC0000058C0000056C0000054C0000084
:1000200052C0000050C000004EC000004CC0000094
:100030004AC0000074C0000046C0000044C0000078
:1000400042C0000040C000003EC000003CC00000B4
:100050003AC0000038C0000036C0000034C00000C4
:1000600032C0000030C000002EC000002CC00000D4
:100070002AC0000028C0000026C0000024C00000E4
:1000800022C0000020C000001EC0000011241FBEBE
:10009000CFEFD0E4DEBFCDBF11E0A0E0B1E0E2E9F8
:1000A000F2E000E00BBF02C007900D92A630B1074E
:1000B000D9F721E0A6E0B1E001C01D92A131B2075D
:1000C000E1F7D0D0E4C09CCF181619065CF0089573
:1000D000000021503109E1F74F5F5F4F841795070A
:1000E00019F4089540E050E027E033E0F1CF5E9846
:1000F00088B95F9A00005F9882E090E0E5CF0895AC
:1001000084E690E0E1DF88E3F2DF86E0F0DF8FE075
:10011000EEDF81E0ECDF8AE090E0D6CF08951F9219
:100120000F920FB60F9211248F939F93AF93BF93AB
:100130008091080190910901A0910A01B0910B01F1
:100140000197A109B1098093080190930901A09337
:100150000A01B0930B01892B8A2B8B2B99F481E038
:1001600080930C018091020190910301A091040100
:10017000B09105018093080190930901A0930A01B1
:10018000B0930B01BF91AF919F918F910F900FBED4
:100190000F901F90189580B191E0282F217080FD5D
:1001A00090E09093070180910E01813051F028F08A
:1001B000823069F0833079F014C081E080930E01C1
:1001C00019C0211117C082E080930E010CC083E09A
:1001D00080930E010FC0222369F081E080930E010D
:1001E00009C0823039F481E090910101911180E0E1
:1001F000809301018091010185B9089580B18095B6
:1002000082708093060190910D01913051F028F099
:10021000923061F0933071F013C081E080930D0152
:100220001DC08230D9F480930D010CC083E080930F
:100230000D0114C0823091F081E080930D010EC059
:10024000923061F480910001823019F41092000123
:1002500005C0811103C082E08093000180910001FC
:1002600085B9089511B88FEF82B984B915B848DF00
:1002700084E085B988E085B986E185B982E385B9EE
:1002800010920E0110920D0186DFB8DFFDCFF894B9
:02029000FFCF9E
:0602920002010100000062
:00000001FF
